{
  "_format": "hh-sol-artifact-1",
  "contractName": "WibuToken",
  "sourceName": "contracts/WibuToken.sol",
  "abi": [
    {
      "inputs": [
        {
          "internalType": "string",
          "name": "uri",
          "type": "string"
        }
      ],
      "stateMutability": "nonpayable",
      "type": "constructor"
    },
    {
      "anonymous": false,
      "inputs": [
        {
          "indexed": true,
          "internalType": "address",
          "name": "owner",
          "type": "address"
        },
        {
          "indexed": true,
          "internalType": "address",
          "name": "spender",
          "type": "address"
        },
        {
          "indexed": false,
          "internalType": "uint256",
          "name": "value",
          "type": "uint256"
        }
      ],
      "name": "Approval",
      "type": "event"
    },
    {
      "anonymous": false,
      "inputs": [
        {
          "indexed": true,
          "internalType": "address",
          "name": "account",
          "type": "address"
        },
        {
          "indexed": true,
          "internalType": "address",
          "name": "operator",
          "type": "address"
        },
        {
          "indexed": false,
          "internalType": "bool",
          "name": "approved",
          "type": "bool"
        }
      ],
      "name": "ApprovalForAll",
      "type": "event"
    },
    {
      "anonymous": false,
      "inputs": [
        {
          "indexed": true,
          "internalType": "address",
          "name": "from",
          "type": "address"
        },
        {
          "indexed": true,
          "internalType": "address",
          "name": "to",
          "type": "address"
        },
        {
          "indexed": true,
          "internalType": "address",
          "name": "issuer",
          "type": "address"
        },
        {
          "indexed": false,
          "internalType": "uint256",
          "name": "value",
          "type": "uint256"
        }
      ],
      "name": "Fee",
      "type": "event"
    },
    {
      "anonymous": false,
      "inputs": [
        {
          "indexed": false,
          "internalType": "address",
          "name": "account",
          "type": "address"
        }
      ],
      "name": "Paused",
      "type": "event"
    },
    {
      "anonymous": false,
      "inputs": [
        {
          "indexed": true,
          "internalType": "bytes32",
          "name": "role",
          "type": "bytes32"
        },
        {
          "indexed": true,
          "internalType": "bytes32",
          "name": "previousAdminRole",
          "type": "bytes32"
        },
        {
          "indexed": true,
          "internalType": "bytes32",
          "name": "newAdminRole",
          "type": "bytes32"
        }
      ],
      "name": "RoleAdminChanged",
      "type": "event"
    },
    {
      "anonymous": false,
      "inputs": [
        {
          "indexed": true,
          "internalType": "bytes32",
          "name": "role",
          "type": "bytes32"
        },
        {
          "indexed": true,
          "internalType": "address",
          "name": "account",
          "type": "address"
        },
        {
          "indexed": true,
          "internalType": "address",
          "name": "sender",
          "type": "address"
        }
      ],
      "name": "RoleGranted",
      "type": "event"
    },
    {
      "anonymous": false,
      "inputs": [
        {
          "indexed": true,
          "internalType": "bytes32",
          "name": "role",
          "type": "bytes32"
        },
        {
          "indexed": true,
          "internalType": "address",
          "name": "account",
          "type": "address"
        },
        {
          "indexed": true,
          "internalType": "address",
          "name": "sender",
          "type": "address"
        }
      ],
      "name": "RoleRevoked",
      "type": "event"
    },
    {
      "anonymous": false,
      "inputs": [
        {
          "indexed": true,
          "internalType": "address",
          "name": "from",
          "type": "address"
        },
        {
          "indexed": true,
          "internalType": "address",
          "name": "to",
          "type": "address"
        },
        {
          "indexed": false,
          "internalType": "uint256",
          "name": "value",
          "type": "uint256"
        }
      ],
      "name": "Transfer",
      "type": "event"
    },
    {
      "anonymous": false,
      "inputs": [
        {
          "indexed": true,
          "internalType": "address",
          "name": "operator",
          "type": "address"
        },
        {
          "indexed": true,
          "internalType": "address",
          "name": "from",
          "type": "address"
        },
        {
          "indexed": true,
          "internalType": "address",
          "name": "to",
          "type": "address"
        },
        {
          "indexed": false,
          "internalType": "uint256[]",
          "name": "ids",
          "type": "uint256[]"
        },
        {
          "indexed": false,
          "internalType": "uint256[]",
          "name": "values",
          "type": "uint256[]"
        }
      ],
      "name": "TransferBatch",
      "type": "event"
    },
    {
      "anonymous": false,
      "inputs": [
        {
          "indexed": true,
          "internalType": "address",
          "name": "operator",
          "type": "address"
        },
        {
          "indexed": true,
          "internalType": "address",
          "name": "from",
          "type": "address"
        },
        {
          "indexed": true,
          "internalType": "address",
          "name": "to",
          "type": "address"
        },
        {
          "indexed": false,
          "internalType": "uint256",
          "name": "id",
          "type": "uint256"
        },
        {
          "indexed": false,
          "internalType": "uint256",
          "name": "value",
          "type": "uint256"
        }
      ],
      "name": "TransferSingle",
      "type": "event"
    },
    {
      "anonymous": false,
      "inputs": [
        {
          "indexed": false,
          "internalType": "string",
          "name": "value",
          "type": "string"
        },
        {
          "indexed": true,
          "internalType": "uint256",
          "name": "id",
          "type": "uint256"
        }
      ],
      "name": "URI",
      "type": "event"
    },
    {
      "anonymous": false,
      "inputs": [
        {
          "indexed": false,
          "internalType": "address",
          "name": "account",
          "type": "address"
        }
      ],
      "name": "Unpaused",
      "type": "event"
    },
    {
      "inputs": [],
      "name": "DEFAULT_ADMIN_ROLE",
      "outputs": [
        {
          "internalType": "bytes32",
          "name": "",
          "type": "bytes32"
        }
      ],
      "stateMutability": "view",
      "type": "function"
    },
    {
      "inputs": [],
      "name": "MINTER_ROLE",
      "outputs": [
        {
          "internalType": "bytes32",
          "name": "",
          "type": "bytes32"
        }
      ],
      "stateMutability": "view",
      "type": "function"
    },
    {
      "inputs": [],
      "name": "PAUSER_ROLE",
      "outputs": [
        {
          "internalType": "bytes32",
          "name": "",
          "type": "bytes32"
        }
      ],
      "stateMutability": "view",
      "type": "function"
    },
    {
      "inputs": [],
      "name": "_getNextTokenId",
      "outputs": [
        {
          "internalType": "uint256",
          "name": "",
          "type": "uint256"
        }
      ],
      "stateMutability": "view",
      "type": "function"
    },
    {
      "inputs": [],
      "name": "_incrementTokenId",
      "outputs": [],
      "stateMutability": "nonpayable",
      "type": "function"
    },
    {
      "inputs": [
        {
          "internalType": "address",
          "name": "to",
          "type": "address"
        },
        {
          "internalType": "string",
          "name": "id",
          "type": "string"
        },
        {
          "internalType": "bytes",
          "name": "data",
          "type": "bytes"
        }
      ],
      "name": "_mint",
      "outputs": [],
      "stateMutability": "nonpayable",
      "type": "function"
    },
    {
      "inputs": [
        {
          "internalType": "address",
          "name": "creatorAddress",
          "type": "address"
        }
      ],
      "name": "addCreator",
      "outputs": [],
      "stateMutability": "nonpayable",
      "type": "function"
    },
    {
      "inputs": [
        {
          "internalType": "address",
          "name": "owner",
          "type": "address"
        },
        {
          "internalType": "address",
          "name": "spender",
          "type": "address"
        }
      ],
      "name": "allowance",
      "outputs": [
        {
          "internalType": "uint256",
          "name": "",
          "type": "uint256"
        }
      ],
      "stateMutability": "view",
      "type": "function"
    },
    {
      "inputs": [
        {
          "internalType": "address",
          "name": "spender",
          "type": "address"
        },
        {
          "internalType": "uint256",
          "name": "value",
          "type": "uint256"
        }
      ],
      "name": "approve",
      "outputs": [
        {
          "internalType": "bool",
          "name": "",
          "type": "bool"
        }
      ],
      "stateMutability": "nonpayable",
      "type": "function"
    },
    {
      "inputs": [
        {
          "internalType": "address",
          "name": "account",
          "type": "address"
        },
        {
          "internalType": "uint256",
          "name": "id",
          "type": "uint256"
        }
      ],
      "name": "balanceOf",
      "outputs": [
        {
          "internalType": "uint256",
          "name": "",
          "type": "uint256"
        }
      ],
      "stateMutability": "view",
      "type": "function"
    },
    {
      "inputs": [
        {
          "internalType": "address",
          "name": "owner",
          "type": "address"
        }
      ],
      "name": "balanceOf",
      "outputs": [
        {
          "internalType": "uint256",
          "name": "",
          "type": "uint256"
        }
      ],
      "stateMutability": "view",
      "type": "function"
    },
    {
      "inputs": [
        {
          "internalType": "address[]",
          "name": "accounts",
          "type": "address[]"
        },
        {
          "internalType": "uint256[]",
          "name": "ids",
          "type": "uint256[]"
        }
      ],
      "name": "balanceOfBatch",
      "outputs": [
        {
          "internalType": "uint256[]",
          "name": "",
          "type": "uint256[]"
        }
      ],
      "stateMutability": "view",
      "type": "function"
    },
    {
      "inputs": [
        {
          "internalType": "address",
          "name": "account",
          "type": "address"
        },
        {
          "internalType": "uint256",
          "name": "id",
          "type": "uint256"
        },
        {
          "internalType": "uint256",
          "name": "value",
          "type": "uint256"
        }
      ],
      "name": "burn",
      "outputs": [],
      "stateMutability": "nonpayable",
      "type": "function"
    },
    {
      "inputs": [
        {
          "internalType": "address",
          "name": "account",
          "type": "address"
        },
        {
          "internalType": "uint256[]",
          "name": "ids",
          "type": "uint256[]"
        },
        {
          "internalType": "uint256[]",
          "name": "values",
          "type": "uint256[]"
        }
      ],
      "name": "burnBatch",
      "outputs": [],
      "stateMutability": "nonpayable",
      "type": "function"
    },
    {
      "inputs": [
        {
          "internalType": "string",
          "name": "id",
          "type": "string"
        },
        {
          "internalType": "string",
          "name": "uri",
          "type": "string"
        },
        {
          "internalType": "uint256",
          "name": "maxSupply",
          "type": "uint256"
        },
        {
          "internalType": "uint256",
          "name": "initialSupply",
          "type": "uint256"
        },
        {
          "internalType": "bytes",
          "name": "data",
          "type": "bytes"
        }
      ],
      "name": "createEpisode",
      "outputs": [
        {
          "internalType": "string",
          "name": "",
          "type": "string"
        }
      ],
      "stateMutability": "nonpayable",
      "type": "function"
    },
    {
      "inputs": [],
      "name": "decimals",
      "outputs": [
        {
          "internalType": "uint8",
          "name": "",
          "type": "uint8"
        }
      ],
      "stateMutability": "view",
      "type": "function"
    },
    {
      "inputs": [
        {
          "internalType": "uint256",
          "name": "value",
          "type": "uint256"
        }
      ],
      "name": "estimateFee",
      "outputs": [
        {
          "internalType": "uint256",
          "name": "",
          "type": "uint256"
        }
      ],
      "stateMutability": "view",
      "type": "function"
    },
    {
      "inputs": [
        {
          "internalType": "bytes32",
          "name": "role",
          "type": "bytes32"
        }
      ],
      "name": "getRoleAdmin",
      "outputs": [
        {
          "internalType": "bytes32",
          "name": "",
          "type": "bytes32"
        }
      ],
      "stateMutability": "view",
      "type": "function"
    },
    {
      "inputs": [
        {
          "internalType": "bytes32",
          "name": "role",
          "type": "bytes32"
        },
        {
          "internalType": "uint256",
          "name": "index",
          "type": "uint256"
        }
      ],
      "name": "getRoleMember",
      "outputs": [
        {
          "internalType": "address",
          "name": "",
          "type": "address"
        }
      ],
      "stateMutability": "view",
      "type": "function"
    },
    {
      "inputs": [
        {
          "internalType": "bytes32",
          "name": "role",
          "type": "bytes32"
        }
      ],
      "name": "getRoleMemberCount",
      "outputs": [
        {
          "internalType": "uint256",
          "name": "",
          "type": "uint256"
        }
      ],
      "stateMutability": "view",
      "type": "function"
    },
    {
      "inputs": [
        {
          "internalType": "bytes32",
          "name": "role",
          "type": "bytes32"
        },
        {
          "internalType": "address",
          "name": "account",
          "type": "address"
        }
      ],
      "name": "grantRole",
      "outputs": [],
      "stateMutability": "nonpayable",
      "type": "function"
    },
    {
      "inputs": [
        {
          "internalType": "bytes32",
          "name": "role",
          "type": "bytes32"
        },
        {
          "internalType": "address",
          "name": "account",
          "type": "address"
        }
      ],
      "name": "hasRole",
      "outputs": [
        {
          "internalType": "bool",
          "name": "",
          "type": "bool"
        }
      ],
      "stateMutability": "view",
      "type": "function"
    },
    {
      "inputs": [
        {
          "internalType": "address",
          "name": "account",
          "type": "address"
        },
        {
          "internalType": "address",
          "name": "operator",
          "type": "address"
        }
      ],
      "name": "isApprovedForAll",
      "outputs": [
        {
          "internalType": "bool",
          "name": "",
          "type": "bool"
        }
      ],
      "stateMutability": "view",
      "type": "function"
    },
    {
      "inputs": [],
      "name": "issuer",
      "outputs": [
        {
          "internalType": "address",
          "name": "",
          "type": "address"
        }
      ],
      "stateMutability": "view",
      "type": "function"
    },
    {
      "inputs": [],
      "name": "minFee",
      "outputs": [
        {
          "internalType": "uint256",
          "name": "",
          "type": "uint256"
        }
      ],
      "stateMutability": "view",
      "type": "function"
    },
    {
      "inputs": [
        {
          "internalType": "address",
          "name": "to",
          "type": "address"
        },
        {
          "internalType": "string",
          "name": "id",
          "type": "string"
        },
        {
          "internalType": "uint256",
          "name": "amount",
          "type": "uint256"
        },
        {
          "internalType": "bytes",
          "name": "data",
          "type": "bytes"
        }
      ],
      "name": "mint",
      "outputs": [],
      "stateMutability": "nonpayable",
      "type": "function"
    },
    {
      "inputs": [
        {
          "internalType": "address",
          "name": "to",
          "type": "address"
        },
        {
          "internalType": "string[]",
          "name": "ids",
          "type": "string[]"
        },
        {
          "internalType": "uint256[]",
          "name": "amounts",
          "type": "uint256[]"
        },
        {
          "internalType": "bytes",
          "name": "data",
          "type": "bytes"
        }
      ],
      "name": "mintBatch",
      "outputs": [],
      "stateMutability": "nonpayable",
      "type": "function"
    },
    {
      "inputs": [],
      "name": "name",
      "outputs": [
        {
          "internalType": "string",
          "name": "",
          "type": "string"
        }
      ],
      "stateMutability": "view",
      "type": "function"
    },
    {
      "inputs": [],
      "name": "pause",
      "outputs": [],
      "stateMutability": "nonpayable",
      "type": "function"
    },
    {
      "inputs": [],
      "name": "paused",
      "outputs": [
        {
          "internalType": "bool",
          "name": "",
          "type": "bool"
        }
      ],
      "stateMutability": "view",
      "type": "function"
    },
    {
      "inputs": [
        {
          "internalType": "bytes32",
          "name": "role",
          "type": "bytes32"
        },
        {
          "internalType": "address",
          "name": "account",
          "type": "address"
        }
      ],
      "name": "renounceRole",
      "outputs": [],
      "stateMutability": "nonpayable",
      "type": "function"
    },
    {
      "inputs": [
        {
          "internalType": "bytes32",
          "name": "role",
          "type": "bytes32"
        },
        {
          "internalType": "address",
          "name": "account",
          "type": "address"
        }
      ],
      "name": "revokeRole",
      "outputs": [],
      "stateMutability": "nonpayable",
      "type": "function"
    },
    {
      "inputs": [
        {
          "internalType": "address",
          "name": "from",
          "type": "address"
        },
        {
          "internalType": "address",
          "name": "to",
          "type": "address"
        },
        {
          "internalType": "uint256[]",
          "name": "ids",
          "type": "uint256[]"
        },
        {
          "internalType": "uint256[]",
          "name": "amounts",
          "type": "uint256[]"
        },
        {
          "internalType": "bytes",
          "name": "data",
          "type": "bytes"
        }
      ],
      "name": "safeBatchTransferFrom",
      "outputs": [],
      "stateMutability": "nonpayable",
      "type": "function"
    },
    {
      "inputs": [
        {
          "internalType": "address",
          "name": "from",
          "type": "address"
        },
        {
          "internalType": "address",
          "name": "to",
          "type": "address"
        },
        {
          "internalType": "uint256",
          "name": "id",
          "type": "uint256"
        },
        {
          "internalType": "uint256",
          "name": "amount",
          "type": "uint256"
        },
        {
          "internalType": "bytes",
          "name": "data",
          "type": "bytes"
        }
      ],
      "name": "safeTransferFrom",
      "outputs": [],
      "stateMutability": "nonpayable",
      "type": "function"
    },
    {
      "inputs": [
        {
          "internalType": "address",
          "name": "operator",
          "type": "address"
        },
        {
          "internalType": "bool",
          "name": "approved",
          "type": "bool"
        }
      ],
      "name": "setApprovalForAll",
      "outputs": [],
      "stateMutability": "nonpayable",
      "type": "function"
    },
    {
      "inputs": [
        {
          "internalType": "uint256",
          "name": "value",
          "type": "uint256"
        }
      ],
      "name": "setMinFee",
      "outputs": [],
      "stateMutability": "nonpayable",
      "type": "function"
    },
    {
      "inputs": [
        {
          "internalType": "bytes4",
          "name": "interfaceId",
          "type": "bytes4"
        }
      ],
      "name": "supportsInterface",
      "outputs": [
        {
          "internalType": "bool",
          "name": "",
          "type": "bool"
        }
      ],
      "stateMutability": "view",
      "type": "function"
    },
    {
      "inputs": [],
      "name": "symbol",
      "outputs": [
        {
          "internalType": "string",
          "name": "",
          "type": "string"
        }
      ],
      "stateMutability": "view",
      "type": "function"
    },
    {
      "inputs": [],
      "name": "totalSupply",
      "outputs": [
        {
          "internalType": "uint256",
          "name": "",
          "type": "uint256"
        }
      ],
      "stateMutability": "view",
      "type": "function"
    },
    {
      "inputs": [
        {
          "internalType": "address",
          "name": "to",
          "type": "address"
        },
        {
          "internalType": "uint256",
          "name": "value",
          "type": "uint256"
        }
      ],
      "name": "transfer",
      "outputs": [
        {
          "internalType": "bool",
          "name": "",
          "type": "bool"
        }
      ],
      "stateMutability": "nonpayable",
      "type": "function"
    },
    {
      "inputs": [
        {
          "internalType": "address",
          "name": "from",
          "type": "address"
        },
        {
          "internalType": "address",
          "name": "to",
          "type": "address"
        },
        {
          "internalType": "uint256",
          "name": "value",
          "type": "uint256"
        }
      ],
      "name": "transferFrom",
      "outputs": [
        {
          "internalType": "bool",
          "name": "",
          "type": "bool"
        }
      ],
      "stateMutability": "nonpayable",
      "type": "function"
    },
    {
      "inputs": [],
      "name": "unpause",
      "outputs": [],
      "stateMutability": "nonpayable",
      "type": "function"
    },
    {
      "inputs": [
        {
          "internalType": "uint256",
          "name": "",
          "type": "uint256"
        }
      ],
      "name": "uri",
      "outputs": [
        {
          "internalType": "string",
          "name": "",
          "type": "string"
        }
      ],
      "stateMutability": "view",
      "type": "function"
    }
  ],
  "bytecode": "0x60806040523480156200001157600080fd5b506040516200429a3803806200429a83398101604081905262000034916200049e565b80604051806040016040528060048152602001637769627560e01b815250604051806040016040528060048152602001635749425560e01b815250601260008084600790805190602001906200008c929190620003f8565b508351620000a2906008906020870190620003f8565b506009805460ff191660ff8516179055620000be338362000166565b620000c93362000229565b620000d381600355565b5050505050620000e9816200025f60201b60201c565b50600d805460ff19169055620001026000335b62000278565b6200012e7f9f2df0fed2c77648de5860a4cc508cd0818c85b8b8a1ab4ceeef8d981c8956a633620000fc565b6200015a7f65d7a28e3265b37a6474929f336521b332c1681b933f6cb9f3376673440d862a33620000fc565b506000600e55620005ec565b6001600160a01b0382166200017a57600080fd5b6200019681600654620002bb60201b62001c741790919060201c565b6006556001600160a01b038216600090815260026020908152604090912054620001cb91839062001c74620002bb821b17901c565b6001600160a01b0383166000818152600260205260408082209390935591519091907fddf252ad1be2c89b69c2b068fc378daa952ba7f163c4a11628f55a4df523b3ef906200021d9085815260200190565b60405180910390a35050565b6001600160a01b0381166200023d57600080fd5b600480546001600160a01b0319166001600160a01b0392909216919091179055565b80516200027490600c906020840190620003f8565b5050565b6200028f8282620002e360201b62001c901760201c565b6000828152600160209081526040909120620002b691839062001c9e620002ef821b17901c565b505050565b600080620002ca838562000574565b905083811015620002da57600080fd5b90505b92915050565b62000274828262000306565b6000620002da836001600160a01b038416620003a6565b6000828152602081815260408083206001600160a01b038516845290915290205460ff1662000274576000828152602081815260408083206001600160a01b03851684529091529020805460ff19166001179055620003623390565b6001600160a01b0316816001600160a01b0316837f2f8788117e7eff1d82e926ec794901d17c78024a50270940304540a733656f0d60405160405180910390a45050565b6000818152600183016020526040812054620003ef57508154600181810184556000848152602080822090930184905584548482528286019093526040902091909155620002dd565b506000620002dd565b828054620004069062000599565b90600052602060002090601f0160209004810192826200042a576000855562000475565b82601f106200044557805160ff191683800117855562000475565b8280016001018555821562000475579182015b828111156200047557825182559160200191906001019062000458565b506200048392915062000487565b5090565b5b8082111562000483576000815560010162000488565b60006020808385031215620004b1578182fd5b82516001600160401b0380821115620004c8578384fd5b818501915085601f830112620004dc578384fd5b815181811115620004f157620004f1620005d6565b604051601f8201601f19908116603f011681019083821181831017156200051c576200051c620005d6565b81604052828152888684870101111562000534578687fd5b8693505b8284101562000557578484018601518185018701529285019262000538565b828411156200056857868684830101525b98975050505050505050565b600082198211156200059457634e487b7160e01b81526011600452602481fd5b500190565b600181811c90821680620005ae57607f821691505b60208210811415620005d057634e487b7160e01b600052602260045260246000fd5b50919050565b634e487b7160e01b600052604160045260246000fd5b613c9e80620005fc6000396000f3fe608060405234801561001057600080fd5b50600436106102e85760003560e01c80635889862a11610191578063a9059cbb116100e3578063dd62ed3e11610097578063f242432a11610071578063f242432a1461068e578063f5298aca146106a1578063f6b3c711146106b4576102e8565b8063dd62ed3e146105f2578063e63ab1e91461062b578063e985e9c514610652576102e8565b8063ca15c873116100c8578063ca15c873146105a5578063d5391393146105b8578063d547741f146105df576102e8565b8063a9059cbb1461058a578063b9dd65741461059d576102e8565b80639010d07c11610145578063972d1ae21161011f578063972d1ae214610567578063a217fddf1461056f578063a22cb46514610577576102e8565b80639010d07c1461051557806391d148541461052857806395d89b411461055f576102e8565b80636b20c454116101765780636b20c454146104d157806370a08231146104e45780638456cb591461050d576102e8565b80635889862a146104b35780635c975abb146104c6576102e8565b806324ec75901161024a57806336568abe116101fe578063428a328b116101d8578063428a328b1461046d5780634e1273f4146104805780635523c250146104a0576102e8565b806336568abe1461043f5780633b9dce05146104525780633f4ba83a14610465576102e8565b80632f2ff15d1161022f5780632f2ff15d14610404578063313ce5671461041757806331ac99201461042c576102e8565b806324ec7590146103e75780632eb2c2d6146103ef576102e8565b8063127e8e4d116102a15780631d143848116102865780631d1438481461038c57806323b872dd146103b1578063248a9ca3146103c4576102e8565b8063127e8e4d1461037157806318160ddd14610384576102e8565b806306fdde03116102d257806306fdde0314610336578063095ea7b31461034b5780630e89341c1461035e576102e8565b8062fdd58e146102ed57806301ffc9a714610313575b600080fd5b6103006102fb36600461355b565b6106c7565b6040519081526020015b60405180910390f35b6103266103213660046136dc565b610775565b604051901515815260200161030a565b61033e610788565b60405161030a919061396c565b61032661035936600461355b565b61081b565b61033e61036c366004613681565b6108d3565b61030061037f366004613681565b610967565b600654610300565b6004546001600160a01b03165b6040516001600160a01b03909116815260200161030a565b6103266103bf36600461324b565b610981565b6103006103d2366004613681565b60009081526020819052604090206001015490565b600354610300565b6104026103fd3660046131a5565b610aba565b005b610402610412366004613699565b610e1e565b60095460405160ff909116815260200161030a565b61040261043a366004613681565b610e45565b61040261044d366004613699565b610e68565b610402610460366004613159565b610e8a565b610402610f31565b61040261047b3660046132e9565b610fd7565b61049361048e3660046135b6565b611056565b60405161030a919061392b565b6104026104ae3660046134ec565b6111cc565b6104026104c1366004613485565b6113b5565b600d5460ff16610326565b6104026104df3660046133da565b61146b565b6103006104f2366004613159565b6001600160a01b031660009081526002602052604090205490565b6104026114f0565b6103996105233660046136bb565b611594565b610326610536366004613699565b6000918252602082815260408084206001600160a01b0393909316845291905290205460ff1690565b61033e6115b3565b6103006115c2565b610300600081565b61040261058536600461344b565b6115d8565b61032661059836600461355b565b6116d0565b61040261178f565b6103006105b3366004613681565b6117a2565b6103007f9f2df0fed2c77648de5860a4cc508cd0818c85b8b8a1ab4ceeef8d981c8956a681565b6104026105ed366004613699565b6117b9565b610300610600366004613173565b6001600160a01b03918216600090815260056020908152604080832093909416825291909152205490565b6103007f65d7a28e3265b37a6474929f336521b332c1681b933f6cb9f3376673440d862a81565b610326610660366004613173565b6001600160a01b039182166000908152600b6020908152604080832093909416825291909152205460ff1690565b61040261069c366004613286565b6117c3565b6104026106af366004613584565b6119f7565b61033e6106c2366004613714565b611a7c565b60006001600160a01b03831661074a5760405162461bcd60e51b815260206004820152602b60248201527f455243313135353a2062616c616e636520717565727920666f7220746865207a60448201527f65726f206164647265737300000000000000000000000000000000000000000060648201526084015b60405180910390fd5b506000818152600a602090815260408083206001600160a01b03861684529091529020545b92915050565b600061078082611cb3565b90505b919050565b60606007805461079790613afa565b80601f01602080910402602001604051908101604052809291908181526020018280546107c390613afa565b80156108105780601f106107e557610100808354040283529160200191610810565b820191906000526020600020905b8154815290600101906020018083116107f357829003601f168201915b505050505090505b90565b60006001600160a01b03831661083057600080fd5b60035433600090815260026020526040902054101561084e57600080fd5b3360008181526005602090815260408083206001600160a01b038881168552925290912084905560045460035461088a93929190911690611d25565b6040518281526001600160a01b0384169033907f8c5be1e5ebec7d5bd14f71427d1e84f3dd0314c0f7b2291e5b200ac8c7c3b9259060200160405180910390a350600192915050565b6060600c80546108e290613afa565b80601f016020809104026020016040519081016040528092919081815260200182805461090e90613afa565b801561095b5780601f106109305761010080835404028352916020019161095b565b820191906000526020600020905b81548152906001019060200180831161093e57829003601f168201915b50505050509050919050565b6003546000906107809061097b8484611e10565b90611c74565b60008061099960035484611c7490919063ffffffff16565b90506001600160a01b0384166109ae57600080fd5b808311156109bb57600080fd5b6001600160a01b03851660009081526005602090815260408083203384529091529020548111156109eb57600080fd5b6001600160a01b0385166000908152600560209081526040808320338452909152902054610a199082611e42565b6001600160a01b0386166000908152600560209081526040808320338452909152902055610a48858585611d25565b600454600354610a659187916001600160a01b0390911690611d25565b6004546003546040519081526001600160a01b039182169186169033907ffcf5b3276434181e3c48bd3fe569b8939808f11e845d4b963693b9d7dbd6dd999060200160405180910390a4506001949350505050565b8151835114610b1c5760405162461bcd60e51b815260206004820152602860248201527f455243313135353a2069647320616e6420616d6f756e7473206c656e677468206044820152670dad2e6dac2e8c6d60c31b6064820152608401610741565b6001600160a01b038416610b805760405162461bcd60e51b815260206004820152602560248201527f455243313135353a207472616e7366657220746f20746865207a65726f206164604482015264647265737360d81b6064820152608401610741565b6001600160a01b038516331480610b9c5750610b9c8533610660565b610c0e5760405162461bcd60e51b815260206004820152603260248201527f455243313135353a207472616e736665722063616c6c6572206973206e6f742060448201527f6f776e6572206e6f7220617070726f76656400000000000000000000000000006064820152608401610741565b33610c1d818787878787611e65565b60005b8451811015610db0576000858281518110610c4b57634e487b7160e01b600052603260045260246000fd5b602002602001015190506000858381518110610c7757634e487b7160e01b600052603260045260246000fd5b6020908102919091018101516000848152600a835260408082206001600160a01b038e168352909352919091205490915081811015610d0b5760405162461bcd60e51b815260206004820152602a60248201527f455243313135353a20696e73756666696369656e742062616c616e636520666f60448201526939103a3930b739b332b960b11b6064820152608401610741565b610d158282613aa0565b600a600085815260200190815260200160002060008c6001600160a01b03166001600160a01b031681526020019081526020016000208190555081600a600085815260200190815260200160002060008b6001600160a01b03166001600160a01b031681526020019081526020016000206000828254610d959190613a49565b9250508190555050505080610da990613b62565b9050610c20565b50846001600160a01b0316866001600160a01b0316826001600160a01b03167f4a39dc06d4c0dbc64b70af90fd698a233a518aa5d07e595d983b8c0526c8f7fb8787604051610e0092919061393e565b60405180910390a4610e16818787878787611e73565b505050505050565b610e288282612028565b6000828152600160205260409020610e409082611c9e565b505050565b6004546001600160a01b03163314610e5c57600080fd5b610e6581600355565b50565b610e72828261204f565b6000828152600160205260409020610e4090826120d7565b610e95600033610536565b610f075760405162461bcd60e51b815260206004820152602960248201527f57696275546f6b656e3a206d75737420686176652061646d696e20726f6c652060448201527f746f2063726561746500000000000000000000000000000000000000000000006064820152608401610741565b610e657f9f2df0fed2c77648de5860a4cc508cd0818c85b8b8a1ab4ceeef8d981c8956a6826120ec565b610f5b7f65d7a28e3265b37a6474929f336521b332c1681b933f6cb9f3376673440d862a33610536565b610fcd5760405162461bcd60e51b815260206004820152603b60248201527f455243313135355072657365744d696e7465725061757365723a206d7573742060448201527f686176652070617573657220726f6c6520746f20756e706175736500000000006064820152608401610741565b610fd56120f6565b565b60005b835181101561104f5761103d8585838151811061100757634e487b7160e01b600052603260045260246000fd5b602002602001015185848151811061102f57634e487b7160e01b600052603260045260246000fd5b6020026020010151856111cc565b8061104781613b62565b915050610fda565b5050505050565b606081518351146110cf5760405162461bcd60e51b815260206004820152602960248201527f455243313135353a206163636f756e747320616e6420696473206c656e67746860448201527f206d69736d6174636800000000000000000000000000000000000000000000006064820152608401610741565b6000835167ffffffffffffffff8111156110f957634e487b7160e01b600052604160045260246000fd5b604051908082528060200260200182016040528015611122578160200160208202803683370190505b50905060005b84518110156111c45761118985828151811061115457634e487b7160e01b600052603260045260246000fd5b602002602001015185838151811061117c57634e487b7160e01b600052603260045260246000fd5b60200260200101516106c7565b8282815181106111a957634e487b7160e01b600052603260045260246000fd5b60209081029190910101526111bd81613b62565b9050611128565b509392505050565b6111f67f9f2df0fed2c77648de5860a4cc508cd0818c85b8b8a1ab4ceeef8d981c8956a633610536565b6112555760405162461bcd60e51b815260206004820152602a60248201527f57696275546f6b656e3a206d7573742068617665206d696e74657220726f6c6560448201526920746f2063726561746560b01b6064820152608401610741565b61128282600f8560405161126991906137ed565b9081526040519081900360200190206003015490611c74565b600f8460405161129291906137ed565b9081526020016040518091039020600201541015600f846040516112b691906137ed565b9081526040519081900360209081018220600201547f57696275546f6b656e3a206d617820737570706c7920000000000000000000009183019190915260368201527f20657863656564656400000000000000000000000000000000000000000000006056820152605f016040516020818303038152906040529061134e5760405162461bcd60e51b8152600401610741919061396c565b5060005b82811015611377576113658585846113b5565b8061136f81613b62565b915050611352565b5061138c82600f8560405161126991906137ed565b600f8460405161139c91906137ed565b9081526040519081900360200190206003015550505050565b60006113bf6115c2565b90506000600f846040516113d391906137ed565b908152602001604051809103902060010180546113ef90613afa565b9050111561145057807f6bb7ff708619ba0610cba295a58592e0451dee2622938c8755667688daf3529b600f8560405161142991906137ed565b9081526020016040518091039020600101604051611447919061397f565b60405180910390a25b61145d8482600185612192565b61146561178f565b50505050565b6001600160a01b03831633148061148757506114878333610660565b6114e55760405162461bcd60e51b815260206004820152602960248201527f455243313135353a2063616c6c6572206973206e6f74206f776e6572206e6f7260448201526808185c1c1c9bdd995960ba1b6064820152608401610741565b610e408383836122b1565b61151a7f65d7a28e3265b37a6474929f336521b332c1681b933f6cb9f3376673440d862a33610536565b61158c5760405162461bcd60e51b815260206004820152603960248201527f455243313135355072657365744d696e7465725061757365723a206d7573742060448201527f686176652070617573657220726f6c6520746f207061757365000000000000006064820152608401610741565b610fd5612524565b60008281526001602052604081206115ac90836125ac565b9392505050565b60606008805461079790613afa565b600e546000906115d3906001611c74565b905090565b336001600160a01b03831614156116575760405162461bcd60e51b815260206004820152602960248201527f455243313135353a2073657474696e6720617070726f76616c2073746174757360448201527f20666f722073656c6600000000000000000000000000000000000000000000006064820152608401610741565b336000818152600b602090815260408083206001600160a01b0387168085529252909120805460ff1916841515179055906001600160a01b03167f17307eab39ab6107e8899845ad3d59bd9653f200f220920489ca2b5937696c31836040516116c4911515815260200190565b60405180910390a35050565b6000806116e860035484611c7490919063ffffffff16565b90506001600160a01b0384166116fd57600080fd5b8083111561170a57600080fd5b611715338585611d25565b600354156117855760045460035461173a9133916001600160a01b0390911690611d25565b6004546003546040519081526001600160a01b039182169186169033907ffcf5b3276434181e3c48bd3fe569b8939808f11e845d4b963693b9d7dbd6dd999060200160405180910390a45b5060019392505050565b600e5461179d906001611c74565b600e55565b6000818152600160205260408120610780906125b8565b610e7282826125c2565b6001600160a01b0384166118275760405162461bcd60e51b815260206004820152602560248201527f455243313135353a207472616e7366657220746f20746865207a65726f206164604482015264647265737360d81b6064820152608401610741565b6001600160a01b03851633148061184357506118438533610660565b6118a15760405162461bcd60e51b815260206004820152602960248201527f455243313135353a2063616c6c6572206973206e6f74206f776e6572206e6f7260448201526808185c1c1c9bdd995960ba1b6064820152608401610741565b336118c08187876118b1886125e8565b6118ba886125e8565b87611e65565b6000848152600a602090815260408083206001600160a01b038a168452909152902054838110156119465760405162461bcd60e51b815260206004820152602a60248201527f455243313135353a20696e73756666696369656e742062616c616e636520666f60448201526939103a3930b739b332b960b11b6064820152608401610741565b6119508482613aa0565b6000868152600a602090815260408083206001600160a01b038c8116855292528083209390935588168152908120805486929061198e908490613a49565b909155505060408051868152602081018690526001600160a01b03808916928a821692918616917fc3d58168c5ae7397731d063d5bbf3d657854427343f4c083240f7aacaa2d0f62910160405180910390a46119ee828888888888612641565b50505050505050565b6001600160a01b038316331480611a135750611a138333610660565b611a715760405162461bcd60e51b815260206004820152602960248201527f455243313135353a2063616c6c6572206973206e6f74206f776e6572206e6f7260448201526808185c1c1c9bdd995960ba1b6064820152608401610741565b610e4083838361274c565b6060611aa87f9f2df0fed2c77648de5860a4cc508cd0818c85b8b8a1ab4ceeef8d981c8956a633610536565b611b075760405162461bcd60e51b815260206004820152602a60248201527f57696275546f6b656e3a206d7573742068617665206d696e74657220726f6c6560448201526920746f2063726561746560b01b6064820152608401610741565b83831115611b7d5760405162461bcd60e51b815260206004820152603860248201527f57696275546f6b656e3a20696e697469616c20737570706c792063616e6e6f7460448201527f206265206d6f7265207468616e206d617820737570706c7900000000000000006064820152608401610741565b6040518060800160405280611b8f3390565b6001600160a01b0316815260200186815260200185815260200184815250600f87604051611bbd91906137ed565b90815260405160209181900382019020825181547fffffffffffffffffffffffff0000000000000000000000000000000000000000166001600160a01b039091161781558282015180519192611c1b92600185019290910190612fc6565b506040820151600282015560609091015160039091015560005b83811015611c69576000611c476115c2565b9050611c563382600187612192565b5080611c6181613b62565b915050611c35565b509495945050505050565b600080611c818385613a49565b9050838110156115ac57600080fd5b611c9a82826128d1565b5050565b60006115ac836001600160a01b03841661296f565b60006001600160e01b031982167fd9b67a26000000000000000000000000000000000000000000000000000000001480611d1657506001600160e01b031982167f0e89341c00000000000000000000000000000000000000000000000000000000145b806107805750610780826129be565b6001600160a01b038316600090815260026020526040902054811115611d4a57600080fd5b6001600160a01b038216611d5d57600080fd5b6001600160a01b038316600090815260026020526040902054611d809082611e42565b6001600160a01b038085166000908152600260205260408082209390935590841681522054611daf9082611c74565b6001600160a01b0380841660008181526002602052604090819020939093559151908516907fddf252ad1be2c89b69c2b068fc378daa952ba7f163c4a11628f55a4df523b3ef90611e039085815260200190565b60405180910390a3505050565b600082611e1f5750600061076f565b6000611e2b8385613a81565b905082611e388583613a61565b146115ac57600080fd5b600082821115611e5157600080fd5b6000611e5d8385613aa0565b949350505050565b610e168686868686866129fc565b6001600160a01b0384163b15610e165760405163bc197c8160e01b81526001600160a01b0385169063bc197c8190611eb7908990899088908890889060040161388a565b602060405180830381600087803b158015611ed157600080fd5b505af1925050508015611f01575060408051601f3d908101601f19168201909252611efe918101906136f8565b60015b611fb757611f0d613ba9565b806308c379a01415611f475750611f22613bc0565b80611f2d5750611f49565b8060405162461bcd60e51b8152600401610741919061396c565b505b60405162461bcd60e51b815260206004820152603460248201527f455243313135353a207472616e7366657220746f206e6f6e204552433131353560448201527f526563656976657220696d706c656d656e7465720000000000000000000000006064820152608401610741565b6001600160e01b0319811663bc197c8160e01b146119ee5760405162461bcd60e51b815260206004820152602860248201527f455243313135353a204552433131353552656365697665722072656a656374656044820152676420746f6b656e7360c01b6064820152608401610741565b60008281526020819052604090206001015461204581335b612a75565b610e4083836128d1565b6001600160a01b03811633146120cd5760405162461bcd60e51b815260206004820152602f60248201527f416363657373436f6e74726f6c3a2063616e206f6e6c792072656e6f756e636560448201527f20726f6c657320666f722073656c6600000000000000000000000000000000006064820152608401610741565b611c9a8282612af3565b60006115ac836001600160a01b038416612b72565b610e288282611c90565b600d5460ff166121485760405162461bcd60e51b815260206004820152601460248201527f5061757361626c653a206e6f74207061757365640000000000000000000000006044820152606401610741565b600d805460ff191690557f5db9ee0a495bf2e6ff9c91a7834c1ba4fdd244a5e8aa4e537bd38aeae4b073aa335b6040516001600160a01b03909116815260200160405180910390a1565b6001600160a01b03841661220e5760405162461bcd60e51b815260206004820152602160248201527f455243313135353a206d696e7420746f20746865207a65726f2061646472657360448201527f73000000000000000000000000000000000000000000000000000000000000006064820152608401610741565b3361221f816000876118b1886125e8565b6000848152600a602090815260408083206001600160a01b038916845290915281208054859290612251908490613a49565b909155505060408051858152602081018590526001600160a01b0380881692600092918516917fc3d58168c5ae7397731d063d5bbf3d657854427343f4c083240f7aacaa2d0f62910160405180910390a461104f81600087878787612641565b6001600160a01b0383166123135760405162461bcd60e51b815260206004820152602360248201527f455243313135353a206275726e2066726f6d20746865207a65726f206164647260448201526265737360e81b6064820152608401610741565b80518251146123755760405162461bcd60e51b815260206004820152602860248201527f455243313135353a2069647320616e6420616d6f756e7473206c656e677468206044820152670dad2e6dac2e8c6d60c31b6064820152608401610741565b600033905061239881856000868660405180602001604052806000815250611e65565b60005b83518110156124c55760008482815181106123c657634e487b7160e01b600052603260045260246000fd5b6020026020010151905060008483815181106123f257634e487b7160e01b600052603260045260246000fd5b6020908102919091018101516000848152600a835260408082206001600160a01b038c16835290935291909120549091508181101561247f5760405162461bcd60e51b8152602060048201526024808201527f455243313135353a206275726e20616d6f756e7420657863656564732062616c604482015263616e636560e01b6064820152608401610741565b6124898282613aa0565b6000938452600a602090815260408086206001600160a01b038c16875290915290932092909255508190506124bd81613b62565b91505061239b565b5060006001600160a01b0316846001600160a01b0316826001600160a01b03167f4a39dc06d4c0dbc64b70af90fd698a233a518aa5d07e595d983b8c0526c8f7fb868660405161251692919061393e565b60405180910390a450505050565b600d5460ff16156125775760405162461bcd60e51b815260206004820152601060248201527f5061757361626c653a20706175736564000000000000000000000000000000006044820152606401610741565b600d805460ff191660011790557f62e78cea01bee320cd4e420270b5ea74000d11b0c9f74754ebdbfc544b05a2586121753390565b60006115ac8383612c89565b6000610780825490565b6000828152602081905260409020600101546125de8133612040565b610e408383612af3565b6040805160018082528183019092526060916000919060208083019080368337019050509050828160008151811061263057634e487b7160e01b600052603260045260246000fd5b602090810291909101015292915050565b6001600160a01b0384163b15610e165760405163f23a6e6160e01b81526001600160a01b0385169063f23a6e619061268590899089908890889088906004016138e8565b602060405180830381600087803b15801561269f57600080fd5b505af19250505080156126cf575060408051601f3d908101601f191682019092526126cc918101906136f8565b60015b6126db57611f0d613ba9565b6001600160e01b0319811663f23a6e6160e01b146119ee5760405162461bcd60e51b815260206004820152602860248201527f455243313135353a204552433131353552656365697665722072656a656374656044820152676420746f6b656e7360c01b6064820152608401610741565b6001600160a01b0383166127ae5760405162461bcd60e51b815260206004820152602360248201527f455243313135353a206275726e2066726f6d20746865207a65726f206164647260448201526265737360e81b6064820152608401610741565b336127dd818560006127bf876125e8565b6127c8876125e8565b60405180602001604052806000815250611e65565b6000838152600a602090815260408083206001600160a01b03881684529091529020548281101561285c5760405162461bcd60e51b8152602060048201526024808201527f455243313135353a206275726e20616d6f756e7420657863656564732062616c604482015263616e636560e01b6064820152608401610741565b6128668382613aa0565b6000858152600a602090815260408083206001600160a01b038a811680865291845282852095909555815189815292830188905292938616917fc3d58168c5ae7397731d063d5bbf3d657854427343f4c083240f7aacaa2d0f62910160405180910390a45050505050565b6000828152602081815260408083206001600160a01b038516845290915290205460ff16611c9a576000828152602081815260408083206001600160a01b03851684529091529020805460ff1916600117905561292b3390565b6001600160a01b0316816001600160a01b0316837f2f8788117e7eff1d82e926ec794901d17c78024a50270940304540a733656f0d60405160405180910390a45050565b60008181526001830160205260408120546129b65750815460018181018455600084815260208082209093018490558454848252828601909352604090209190915561076f565b50600061076f565b60006001600160e01b031982167f5a05180f000000000000000000000000000000000000000000000000000000001480610780575061078082612d38565b600d5460ff1615610e165760405162461bcd60e51b815260206004820152602c60248201527f455243313135355061757361626c653a20746f6b656e207472616e736665722060448201527f7768696c652070617573656400000000000000000000000000000000000000006064820152608401610741565b6000828152602081815260408083206001600160a01b038516845290915290205460ff16611c9a57612ab1816001600160a01b03166014612d9f565b612abc836020612d9f565b604051602001612acd929190613809565b60408051601f198184030181529082905262461bcd60e51b82526107419160040161396c565b6000828152602081815260408083206001600160a01b038516845290915290205460ff1615611c9a576000828152602081815260408083206001600160a01b0385168085529252808320805460ff1916905551339285917ff6391f5c32d9c69d2a47ea670b442974b53935d1edc7fd64eb21e047a839171b9190a45050565b60008181526001830160205260408120548015612c7f576000612b96600183613aa0565b8554909150600090612baa90600190613aa0565b90506000866000018281548110612bd157634e487b7160e01b600052603260045260246000fd5b9060005260206000200154905080876000018481548110612c0257634e487b7160e01b600052603260045260246000fd5b600091825260208083209091019290925582815260018901909152604090208490558654879080612c4357634e487b7160e01b600052603160045260246000fd5b6001900381819060005260206000200160009055905586600101600087815260200190815260200160002060009055600194505050505061076f565b600091505061076f565b81546000908210612d025760405162461bcd60e51b815260206004820152602260248201527f456e756d657261626c655365743a20696e646578206f7574206f6620626f756e60448201527f64730000000000000000000000000000000000000000000000000000000000006064820152608401610741565b826000018281548110612d2557634e487b7160e01b600052603260045260246000fd5b9060005260206000200154905092915050565b60006001600160e01b031982167f7965db0b00000000000000000000000000000000000000000000000000000000148061078057507f01ffc9a7000000000000000000000000000000000000000000000000000000006001600160e01b0319831614610780565b60606000612dae836002613a81565b612db9906002613a49565b67ffffffffffffffff811115612ddf57634e487b7160e01b600052604160045260246000fd5b6040519080825280601f01601f191660200182016040528015612e09576020820181803683370190505b5090507f300000000000000000000000000000000000000000000000000000000000000081600081518110612e4e57634e487b7160e01b600052603260045260246000fd5b60200101906001600160f81b031916908160001a9053507f780000000000000000000000000000000000000000000000000000000000000081600181518110612ea757634e487b7160e01b600052603260045260246000fd5b60200101906001600160f81b031916908160001a9053506000612ecb846002613a81565b612ed6906001613a49565b90505b6001811115612f77577f303132333435363738396162636465660000000000000000000000000000000085600f1660108110612f2557634e487b7160e01b600052603260045260246000fd5b1a60f81b828281518110612f4957634e487b7160e01b600052603260045260246000fd5b60200101906001600160f81b031916908160001a90535060049490941c93612f7081613ae3565b9050612ed9565b5083156115ac5760405162461bcd60e51b815260206004820181905260248201527f537472696e67733a20686578206c656e67746820696e73756666696369656e746044820152606401610741565b828054612fd290613afa565b90600052602060002090601f016020900481019282612ff4576000855561303a565b82601f1061300d57805160ff191683800117855561303a565b8280016001018555821561303a579182015b8281111561303a57825182559160200191906001019061301f565b5061304692915061304a565b5090565b5b80821115613046576000815560010161304b565b80356001600160a01b038116811461078357600080fd5b600082601f830112613086578081fd5b8135602061309382613a25565b6040516130a08282613b35565b8381528281019150858301600585901b870184018810156130bf578586fd5b855b858110156130dd578135845292840192908401906001016130c1565b5090979650505050505050565b600082601f8301126130fa578081fd5b813567ffffffffffffffff81111561311457613114613b93565b60405161312b601f8301601f191660200182613b35565b81815284602083860101111561313f578283fd5b816020850160208301379081016020019190915292915050565b60006020828403121561316a578081fd5b6115ac8261305f565b60008060408385031215613185578081fd5b61318e8361305f565b915061319c6020840161305f565b90509250929050565b600080600080600060a086880312156131bc578081fd5b6131c58661305f565b94506131d36020870161305f565b9350604086013567ffffffffffffffff808211156131ef578283fd5b6131fb89838a01613076565b94506060880135915080821115613210578283fd5b61321c89838a01613076565b93506080880135915080821115613231578283fd5b5061323e888289016130ea565b9150509295509295909350565b60008060006060848603121561325f578283fd5b6132688461305f565b92506132766020850161305f565b9150604084013590509250925092565b600080600080600060a0868803121561329d578081fd5b6132a68661305f565b94506132b46020870161305f565b93506040860135925060608601359150608086013567ffffffffffffffff8111156132dd578182fd5b61323e888289016130ea565b600080600080608085870312156132fe578182fd5b6133078561305f565b935060208086013567ffffffffffffffff80821115613324578485fd5b818801915088601f830112613337578485fd5b813561334281613a25565b60405161334f8282613b35565b8281528581019150848601885b84811015613385576133738e8984358a01016130ea565b8452928701929087019060010161335c565b50909850505050604088013592508083111561339f578485fd5b6133ab89848a01613076565b945060608801359250808311156133c0578384fd5b50506133ce878288016130ea565b91505092959194509250565b6000806000606084860312156133ee578081fd5b6133f78461305f565b9250602084013567ffffffffffffffff80821115613413578283fd5b61341f87838801613076565b93506040860135915080821115613434578283fd5b5061344186828701613076565b9150509250925092565b6000806040838503121561345d578182fd5b6134668361305f565b91506020830135801515811461347a578182fd5b809150509250929050565b600080600060608486031215613499578081fd5b6134a28461305f565b9250602084013567ffffffffffffffff808211156134be578283fd5b6134ca878388016130ea565b935060408601359150808211156134df578283fd5b50613441868287016130ea565b60008060008060808587031215613501578182fd5b61350a8561305f565b9350602085013567ffffffffffffffff80821115613526578384fd5b613532888389016130ea565b945060408701359350606087013591508082111561354e578283fd5b506133ce878288016130ea565b6000806040838503121561356d578182fd5b6135768361305f565b946020939093013593505050565b600080600060608486031215613598578081fd5b6135a18461305f565b95602085013595506040909401359392505050565b600080604083850312156135c8578182fd5b823567ffffffffffffffff808211156135df578384fd5b818501915085601f8301126135f2578384fd5b813560206135ff82613a25565b60405161360c8282613b35565b8381528281019150858301600585901b870184018b101561362b578889fd5b8896505b84871015613654576136408161305f565b83526001969096019591830191830161362f565b509650508601359250508082111561366a578283fd5b5061367785828601613076565b9150509250929050565b600060208284031215613692578081fd5b5035919050565b600080604083850312156136ab578182fd5b8235915061319c6020840161305f565b600080604083850312156136cd578182fd5b50508035926020909101359150565b6000602082840312156136ed578081fd5b81356115ac81613c52565b600060208284031215613709578081fd5b81516115ac81613c52565b600080600080600060a0868803121561372b578283fd5b853567ffffffffffffffff80821115613742578485fd5b61374e89838a016130ea565b96506020880135915080821115613763578485fd5b61376f89838a016130ea565b955060408801359450606088013593506080880135915080821115613231578283fd5b6000815180845260208085019450808401835b83811015611c69578151875295820195908201906001016137a5565b600081518084526137d9816020860160208601613ab7565b601f01601f19169290920160200192915050565b600082516137ff818460208701613ab7565b9190910192915050565b60007f416363657373436f6e74726f6c3a206163636f756e742000000000000000000082528351613841816017850160208801613ab7565b7f206973206d697373696e6720726f6c6520000000000000000000000000000000601791840191820152835161387e816028840160208801613ab7565b01602801949350505050565b60006001600160a01b03808816835280871660208401525060a060408301526138b660a0830186613792565b82810360608401526138c88186613792565b905082810360808401526138dc81856137c1565b98975050505050505050565b60006001600160a01b03808816835280871660208401525084604083015283606083015260a0608083015261392060a08301846137c1565b979650505050505050565b6000602082526115ac6020830184613792565b6000604082526139516040830185613792565b82810360208401526139638185613792565b95945050505050565b6000602082526115ac60208301846137c1565b6000602080835281845483600182811c9150808316806139a057607f831692505b8583108114156139be57634e487b7160e01b87526022600452602487fd5b8786018381526020018180156139db57600181146139ec57613a16565b60ff19861682528782019650613a16565b60008b815260209020895b86811015613a10578154848201529085019089016139f7565b83019750505b50949998505050505050505050565b600067ffffffffffffffff821115613a3f57613a3f613b93565b5060051b60200190565b60008219821115613a5c57613a5c613b7d565b500190565b600082613a7c57634e487b7160e01b81526012600452602481fd5b500490565b6000816000190483118215151615613a9b57613a9b613b7d565b500290565b600082821015613ab257613ab2613b7d565b500390565b60005b83811015613ad2578181015183820152602001613aba565b838111156114655750506000910152565b600081613af257613af2613b7d565b506000190190565b600181811c90821680613b0e57607f821691505b60208210811415613b2f57634e487b7160e01b600052602260045260246000fd5b50919050565b601f8201601f1916810167ffffffffffffffff81118282101715613b5b57613b5b613b93565b6040525050565b6000600019821415613b7657613b76613b7d565b5060010190565b634e487b7160e01b600052601160045260246000fd5b634e487b7160e01b600052604160045260246000fd5b600060033d111561081857600481823e5160e01c90565b600060443d1015613bd057610818565b6040516003193d81016004833e81513d67ffffffffffffffff8160248401118184111715613c02575050505050610818565b8285019150815181811115613c1c57505050505050610818565b843d8701016020828501011115613c3857505050505050610818565b613c4760208286010187613b35565b509094505050505090565b6001600160e01b031981168114610e6557600080fdfea2646970667358221220445019241c5f50566c44e2905a89e6997bdee9525465932d03e65c5139b2464264736f6c63430008030033",
  "linkReferences": {},
  "deployedLinkReferences": {}
}